{
  "_format": "hh-sol-artifact-1",
  "contractName": "ItemManager",
  "sourceName": "contracts/ItemManager.sol",
  "abi": [
    {
      "anonymous": false,
      "inputs": [
        {
          "indexed": true,
          "internalType": "address",
          "name": "previousOwner",
          "type": "address"
        },
        {
          "indexed": true,
          "internalType": "address",
          "name": "newOwner",
          "type": "address"
        }
      ],
      "name": "OwnershipTransferred",
      "type": "event"
    },
    {
      "anonymous": false,
      "inputs": [
        {
          "indexed": false,
          "internalType": "uint256",
          "name": "_itemIndex",
          "type": "uint256"
        },
        {
          "indexed": false,
          "internalType": "uint256",
          "name": "_step",
          "type": "uint256"
        },
        {
          "indexed": false,
          "internalType": "address",
          "name": "_address",
          "type": "address"
        }
      ],
      "name": "SupplyChainStep",
      "type": "event"
    },
    {
      "inputs": [
        {
          "internalType": "string",
          "name": "_identifier",
          "type": "string"
        },
        {
          "internalType": "uint256",
          "name": "_priceInWei",
          "type": "uint256"
        }
      ],
      "name": "createItem",
      "outputs": [],
      "stateMutability": "nonpayable",
      "type": "function"
    },
    {
      "inputs": [
        {
          "internalType": "uint256",
          "name": "",
          "type": "uint256"
        }
      ],
      "name": "items",
      "outputs": [
        {
          "internalType": "contract Item",
          "name": "_item",
          "type": "address"
        },
        {
          "internalType": "enum ItemManager.SupplyChainSteps",
          "name": "_step",
          "type": "uint8"
        },
        {
          "internalType": "string",
          "name": "_identifier",
          "type": "string"
        }
      ],
      "stateMutability": "view",
      "type": "function"
    },
    {
      "inputs": [],
      "name": "owner",
      "outputs": [
        {
          "internalType": "address",
          "name": "",
          "type": "address"
        }
      ],
      "stateMutability": "view",
      "type": "function"
    },
    {
      "inputs": [],
      "name": "renounceOwnership",
      "outputs": [],
      "stateMutability": "nonpayable",
      "type": "function"
    },
    {
      "inputs": [
        {
          "internalType": "address",
          "name": "newOwner",
          "type": "address"
        }
      ],
      "name": "transferOwnership",
      "outputs": [],
      "stateMutability": "nonpayable",
      "type": "function"
    },
    {
      "inputs": [
        {
          "internalType": "uint256",
          "name": "_index",
          "type": "uint256"
        }
      ],
      "name": "triggerDelivery",
      "outputs": [],
      "stateMutability": "nonpayable",
      "type": "function"
    },
    {
      "inputs": [
        {
          "internalType": "uint256",
          "name": "_index",
          "type": "uint256"
        }
      ],
      "name": "triggerPayment",
      "outputs": [],
      "stateMutability": "payable",
      "type": "function"
    }
  ],
  "bytecode": "0x608060405234801561001057600080fd5b5061002d61002261003260201b60201c565b61003a60201b60201c565b6100fe565b600033905090565b60008060009054906101000a900473ffffffffffffffffffffffffffffffffffffffff169050816000806101000a81548173ffffffffffffffffffffffffffffffffffffffff021916908373ffffffffffffffffffffffffffffffffffffffff1602179055508173ffffffffffffffffffffffffffffffffffffffff168173ffffffffffffffffffffffffffffffffffffffff167f8be0079c531659141344cd1fd0a4f28419497f9722a3daafe3b4186f6b6457e060405160405180910390a35050565b611ed98061010d6000396000f3fe6080604052600436106200007a5760003560e01c80638da5cb5b11620000555780638da5cb5b14620000e7578063bfb231d21462000117578063cd31831e146200015d578063f2fde38b146200018b576200007a565b8063715018a6146200007f578063800fb83f14620000995780638c55174214620000b9575b600080fd5b3480156200008c57600080fd5b5062000097620001b9565b005b620000b76004803603810190620000b1919062000f7a565b6200024a565b005b348015620000c657600080fd5b50620000e56004803603810190620000df919062000f20565b62000599565b005b348015620000f457600080fd5b50620000ff62000809565b6040516200010e91906200112b565b60405180910390f35b3480156200012457600080fd5b506200014360048036038101906200013d919062000f7a565b62000832565b604051620001549392919062001185565b60405180910390f35b3480156200016a57600080fd5b5062000189600480360381019062000183919062000f7a565b62000919565b005b3480156200019857600080fd5b50620001b76004803603810190620001b1919062000ef4565b62000baf565b005b620001c362000cb3565b73ffffffffffffffffffffffffffffffffffffffff16620001e362000809565b73ffffffffffffffffffffffffffffffffffffffff16146200023c576040517f08c379a00000000000000000000000000000000000000000000000000000000081526004016200023390620011eb565b60405180910390fd5b62000248600062000cbb565b565b60006001600083815260200190815260200160002060000160009054906101000a900473ffffffffffffffffffffffffffffffffffffffff1690503373ffffffffffffffffffffffffffffffffffffffff168173ffffffffffffffffffffffffffffffffffffffff1614620002f6576040517f08c379a0000000000000000000000000000000000000000000000000000000008152600401620002ed906200122f565b60405180910390fd5b348173ffffffffffffffffffffffffffffffffffffffff16633c8da5886040518163ffffffff1660e01b815260040160206040518083038186803b1580156200033e57600080fd5b505afa15801562000353573d6000803e3d6000fd5b505050506040513d601f19601f8201168201806040525081019062000379919062000fa6565b14620003bc576040517f08c379a0000000000000000000000000000000000000000000000000000000008152600401620003b3906200120d565b60405180910390fd5b60006002811115620003f7577f4e487b7100000000000000000000000000000000000000000000000000000000600052602160045260246000fd5b6001600084815260200190815260200160002060000160149054906101000a900460ff16600281111562000454577f4e487b7100000000000000000000000000000000000000000000000000000000600052602160045260246000fd5b1462000497576040517f08c379a00000000000000000000000000000000000000000000000000000000081526004016200048e9062001251565b60405180910390fd5b600180600084815260200190815260200160002060000160146101000a81548160ff02191690836002811115620004f7577f4e487b7100000000000000000000000000000000000000000000000000000000600052602160045260246000fd5b02179055507fa4035636e99f06b7651a604c1019fa4e8779fe68ef27eeb74dff2de348f6199b826001600085815260200190815260200160002060000160149054906101000a900460ff1660028111156200057b577f4e487b7100000000000000000000000000000000000000000000000000000000600052602160045260246000fd5b836040516200058d9392919062001273565b60405180910390a15050565b620005a362000cb3565b73ffffffffffffffffffffffffffffffffffffffff16620005c362000809565b73ffffffffffffffffffffffffffffffffffffffff16146200061c576040517f08c379a00000000000000000000000000000000000000000000000000000000081526004016200061390620011eb565b60405180910390fd5b60003082600254604051620006319062000d7f565b6200063f9392919062001148565b604051809103906000f0801580156200065c573d6000803e3d6000fd5b5090508060016000600254815260200190815260200160002060000160006101000a81548173ffffffffffffffffffffffffffffffffffffffff021916908373ffffffffffffffffffffffffffffffffffffffff160217905550600060016000600254815260200190815260200160002060000160146101000a81548160ff0219169083600281111562000719577f4e487b7100000000000000000000000000000000000000000000000000000000600052602160045260246000fd5b02179055508260016000600254815260200190815260200160002060010190805190602001906200074c92919062000d8d565b507fa4035636e99f06b7651a604c1019fa4e8779fe68ef27eeb74dff2de348f6199b60025460016000600254815260200190815260200160002060000160149054906101000a900460ff166002811115620007d0577f4e487b7100000000000000000000000000000000000000000000000000000000600052602160045260246000fd5b83604051620007e29392919062001273565b60405180910390a160026000815480929190620007ff9062001493565b9190505550505050565b60008060009054906101000a900473ffffffffffffffffffffffffffffffffffffffff16905090565b60016020528060005260406000206000915090508060000160009054906101000a900473ffffffffffffffffffffffffffffffffffffffff16908060000160149054906101000a900460ff1690806001018054620008909062001427565b80601f0160208091040260200160405190810160405280929190818152602001828054620008be9062001427565b80156200090f5780601f10620008e3576101008083540402835291602001916200090f565b820191906000526020600020905b815481529060010190602001808311620008f157829003601f168201915b5050505050905083565b6200092362000cb3565b73ffffffffffffffffffffffffffffffffffffffff166200094362000809565b73ffffffffffffffffffffffffffffffffffffffff16146200099c576040517f08c379a00000000000000000000000000000000000000000000000000000000081526004016200099390620011eb565b60405180910390fd5b60016002811115620009d7577f4e487b7100000000000000000000000000000000000000000000000000000000600052602160045260246000fd5b6001600083815260200190815260200160002060000160149054906101000a900460ff16600281111562000a34577f4e487b7100000000000000000000000000000000000000000000000000000000600052602160045260246000fd5b1462000a77576040517f08c379a000000000000000000000000000000000000000000000000000000000815260040162000a6e9062001251565b60405180910390fd5b60026001600083815260200190815260200160002060000160146101000a81548160ff0219169083600281111562000ad8577f4e487b7100000000000000000000000000000000000000000000000000000000600052602160045260246000fd5b02179055507fa4035636e99f06b7651a604c1019fa4e8779fe68ef27eeb74dff2de348f6199b816001600084815260200190815260200160002060000160149054906101000a900460ff16600281111562000b5c577f4e487b7100000000000000000000000000000000000000000000000000000000600052602160045260246000fd5b6001600085815260200190815260200160002060000160009054906101000a900473ffffffffffffffffffffffffffffffffffffffff1660405162000ba49392919062001273565b60405180910390a150565b62000bb962000cb3565b73ffffffffffffffffffffffffffffffffffffffff1662000bd962000809565b73ffffffffffffffffffffffffffffffffffffffff161462000c32576040517f08c379a000000000000000000000000000000000000000000000000000000000815260040162000c2990620011eb565b60405180910390fd5b600073ffffffffffffffffffffffffffffffffffffffff168173ffffffffffffffffffffffffffffffffffffffff16141562000ca5576040517f08c379a000000000000000000000000000000000000000000000000000000000815260040162000c9c90620011c9565b60405180910390fd5b62000cb08162000cbb565b50565b600033905090565b60008060009054906101000a900473ffffffffffffffffffffffffffffffffffffffff169050816000806101000a81548173ffffffffffffffffffffffffffffffffffffffff021916908373ffffffffffffffffffffffffffffffffffffffff1602179055508173ffffffffffffffffffffffffffffffffffffffff168173ffffffffffffffffffffffffffffffffffffffff167f8be0079c531659141344cd1fd0a4f28419497f9722a3daafe3b4186f6b6457e060405160405180910390a35050565b61076b806200173983390190565b82805462000d9b9062001427565b90600052602060002090601f01602090048101928262000dbf576000855562000e0b565b82601f1062000dda57805160ff191683800117855562000e0b565b8280016001018555821562000e0b579182015b8281111562000e0a57825182559160200191906001019062000ded565b5b50905062000e1a919062000e1e565b5090565b5b8082111562000e3957600081600090555060010162000e1f565b5090565b600062000e5462000e4e84620012d9565b620012b0565b90508281526020810184848401111562000e6d57600080fd5b62000e7a848285620013e2565b509392505050565b60008135905062000e938162001704565b92915050565b600082601f83011262000eab57600080fd5b813562000ebd84826020860162000e3d565b91505092915050565b60008135905062000ed7816200171e565b92915050565b60008151905062000eee816200171e565b92915050565b60006020828403121562000f0757600080fd5b600062000f178482850162000e82565b91505092915050565b6000806040838503121562000f3457600080fd5b600083013567ffffffffffffffff81111562000f4f57600080fd5b62000f5d8582860162000e99565b925050602062000f708582860162000ec6565b9150509250929050565b60006020828403121562000f8d57600080fd5b600062000f9d8482850162000ec6565b91505092915050565b60006020828403121562000fb957600080fd5b600062000fc98482850162000edd565b91505092915050565b62000fdd816200132b565b82525050565b62000fee816200137e565b82525050565b62000fff81620013a6565b82525050565b6200101081620013ce565b82525050565b600062001023826200130f565b6200102f81856200131a565b935062001041818560208601620013f1565b6200104c816200159d565b840191505092915050565b6000620010666026836200131a565b91506200107382620015ae565b604082019050919050565b60006200108d6020836200131a565b91506200109a82620015fd565b602082019050919050565b6000620010b46012836200131a565b9150620010c18262001626565b602082019050919050565b6000620010db602b836200131a565b9150620010e8826200164f565b604082019050919050565b6000620011026023836200131a565b91506200110f826200169e565b604082019050919050565b620011258162001374565b82525050565b600060208201905062001142600083018462000fd2565b92915050565b60006060820190506200115f600083018662000fe3565b6200116e60208301856200111a565b6200117d60408301846200111a565b949350505050565b60006060820190506200119c600083018662000ff4565b620011ab602083018562001005565b8181036040830152620011bf818462001016565b9050949350505050565b60006020820190508181036000830152620011e48162001057565b9050919050565b6000602082019050818103600083015262001206816200107e565b9050919050565b600060208201905081810360008301526200122881620010a5565b9050919050565b600060208201905081810360008301526200124a81620010cc565b9050919050565b600060208201905081810360008301526200126c81620010f3565b9050919050565b60006060820190506200128a60008301866200111a565b6200129960208301856200111a565b620012a8604083018462000fd2565b949350505050565b6000620012bc620012cf565b9050620012ca82826200145d565b919050565b6000604051905090565b600067ffffffffffffffff821115620012f757620012f66200156e565b5b62001302826200159d565b9050602081019050919050565b600081519050919050565b600082825260208201905092915050565b6000620013388262001354565b9050919050565b60008190506200134f82620016ed565b919050565b600073ffffffffffffffffffffffffffffffffffffffff82169050919050565b6000819050919050565b60006200138b8262001392565b9050919050565b60006200139f8262001354565b9050919050565b6000620013b382620013ba565b9050919050565b6000620013c78262001354565b9050919050565b6000620013db826200133f565b9050919050565b82818337600083830152505050565b60005b8381101562001411578082015181840152602081019050620013f4565b8381111562001421576000848401525b50505050565b600060028204905060018216806200144057607f821691505b602082108114156200145757620014566200153f565b5b50919050565b62001468826200159d565b810181811067ffffffffffffffff821117156200148a57620014896200156e565b5b80604052505050565b6000620014a08262001374565b91507fffffffffffffffffffffffffffffffffffffffffffffffffffffffffffffffff821415620014d657620014d5620014e1565b5b600182019050919050565b7f4e487b7100000000000000000000000000000000000000000000000000000000600052601160045260246000fd5b7f4e487b7100000000000000000000000000000000000000000000000000000000600052602160045260246000fd5b7f4e487b7100000000000000000000000000000000000000000000000000000000600052602260045260246000fd5b7f4e487b7100000000000000000000000000000000000000000000000000000000600052604160045260246000fd5b6000601f19601f8301169050919050565b7f4f776e61626c653a206e6577206f776e657220697320746865207a65726f206160008201527f6464726573730000000000000000000000000000000000000000000000000000602082015250565b7f4f776e61626c653a2063616c6c6572206973206e6f7420746865206f776e6572600082015250565b7f4e6f742066756c6c792070616964207965740000000000000000000000000000600082015250565b7f4f6e6c79206974656d732061726520616c6c6f77656420746f2075706461746560008201527f207468656d73656c766573000000000000000000000000000000000000000000602082015250565b7f4974656d206973206675727468657220696e2074686520737570706c7920636860008201527f61696e0000000000000000000000000000000000000000000000000000000000602082015250565b6003811062001701576200170062001510565b5b50565b6200170f816200132b565b81146200171b57600080fd5b50565b620017298162001374565b81146200173557600080fd5b5056fe608060405234801561001057600080fd5b5060405161076b38038061076b833981810160405281019061003291906100b3565b816000819055508060028190555082600360006101000a81548173ffffffffffffffffffffffffffffffffffffffff021916908373ffffffffffffffffffffffffffffffffffffffff16021790555050505061017e565b60008151905061009881610150565b92915050565b6000815190506100ad81610167565b92915050565b6000806000606084860312156100c857600080fd5b60006100d686828701610089565b93505060206100e78682870161009e565b92505060406100f88682870161009e565b9150509250925092565b600061010d82610126565b9050919050565b600061011f82610102565b9050919050565b600073ffffffffffffffffffffffffffffffffffffffff82169050919050565b6000819050919050565b61015981610114565b811461016457600080fd5b50565b61017081610146565b811461017b57600080fd5b50565b6105de8061018d6000396000f3fe6080604052600436106100385760003560e01c80632986c0e5146102505780633c8da5881461027b57806383d12eef146102a657610241565b36610241576000543414610081576040517f08c379a0000000000000000000000000000000000000000000000000000000008152600401610078906103c3565b60405180910390fd5b6000600154146100c6576040517f08c379a00000000000000000000000000000000000000000000000000000000081526004016100bd906103a3565b60405180910390fd5b34600160008282546100d89190610445565b925050819055506000600360009054906101000a900473ffffffffffffffffffffffffffffffffffffffff1673ffffffffffffffffffffffffffffffffffffffff163460025460405160240161012e9190610403565b6040516020818303038152906040527f800fb83f000000000000000000000000000000000000000000000000000000007bffffffffffffffffffffffffffffffffffffffffffffffffffffffff19166020820180517bffffffffffffffffffffffffffffffffffffffffffffffffffffffff83818316178352505050506040516101b8919061038c565b60006040518083038185875af1925050503d80600081146101f5576040519150601f19603f3d011682016040523d82523d6000602084013e6101fa565b606091505b505090508061023e576040517f08c379a0000000000000000000000000000000000000000000000000000000008152600401610235906103e3565b60405180910390fd5b50005b34801561024d57600080fd5b50005b34801561025c57600080fd5b506102656102d1565b6040516102729190610403565b60405180910390f35b34801561028757600080fd5b506102906102d7565b60405161029d9190610403565b60405180910390f35b3480156102b257600080fd5b506102bb6102dd565b6040516102c89190610403565b60405180910390f35b60025481565b60005481565b60015481565b60006102ee8261041e565b6102f88185610429565b93506103088185602086016104a5565b80840191505092915050565b6000610321601583610434565b915061032c82610507565b602082019050919050565b6000610344602183610434565b915061034f82610530565b604082019050919050565b6000610367601583610434565b91506103728261057f565b602082019050919050565b6103868161049b565b82525050565b600061039882846102e3565b915081905092915050565b600060208201905081810360008301526103bc81610314565b9050919050565b600060208201905081810360008301526103dc81610337565b9050919050565b600060208201905081810360008301526103fc8161035a565b9050919050565b6000602082019050610418600083018461037d565b92915050565b600081519050919050565b600081905092915050565b600082825260208201905092915050565b60006104508261049b565b915061045b8361049b565b9250827fffffffffffffffffffffffffffffffffffffffffffffffffffffffffffffffff038211156104905761048f6104d8565b5b828201905092915050565b6000819050919050565b60005b838110156104c35780820151818401526020810190506104a8565b838111156104d2576000848401525b50505050565b7f4e487b7100000000000000000000000000000000000000000000000000000000600052601160045260246000fd5b7f4974656d20697320616c72656164792070616964210000000000000000000000600082015250565b7f576520646f6e277420737570706f7274207061727469616c207061796d656e7460008201527f7300000000000000000000000000000000000000000000000000000000000000602082015250565b7f44656c697665727920646964206e6f7420776f726b000000000000000000000060008201525056fea2646970667358221220c3543d450ec236de5ea878dd8ad09915dc9bea36e9d90ea32e1536e7667755a364736f6c63430008040033a26469706673582212205b6f24e029bd4a215aae7958eb45909fa72a1a5a3a6f4bec30c37351ea62720c64736f6c63430008040033",
  "linkReferences": {},
  "deployedLinkReferences": {}
}